{
  "contractName": "MessageSignatures",
  "abi": [
    {
      "constant": true,
      "inputs": [],
      "name": "sigCount",
      "outputs": [
        {
          "name": "",
          "type": "uint256"
        }
      ],
      "payable": false,
      "stateMutability": "view",
      "type": "function",
      "signature": "0x806714c1"
    },
    {
      "constant": true,
      "inputs": [
        {
          "name": "",
          "type": "uint256"
        }
      ],
      "name": "signatures",
      "outputs": [
        {
          "name": "id",
          "type": "uint256"
        },
        {
          "name": "content",
          "type": "string"
        }
      ],
      "payable": false,
      "stateMutability": "view",
      "type": "function",
      "signature": "0x8be10194"
    },
    {
      "inputs": [],
      "payable": false,
      "stateMutability": "nonpayable",
      "type": "constructor",
      "signature": "constructor"
    },
    {
      "anonymous": false,
      "inputs": [
        {
          "indexed": false,
          "name": "id",
          "type": "uint256"
        },
        {
          "indexed": false,
          "name": "content",
          "type": "string"
        }
      ],
      "name": "SignatureCreated",
      "type": "event",
      "signature": "0xe2ace3ceb392b309a35f95a17f21f77f8defc978ccab98997cf8b4151a2c9cf9"
    },
    {
      "constant": false,
      "inputs": [
        {
          "name": "_content",
          "type": "string"
        }
      ],
      "name": "createSignature",
      "outputs": [],
      "payable": false,
      "stateMutability": "nonpayable",
      "type": "function",
      "signature": "0xe3467dab"
    }
  ],
  "bytecode": "0x60806040526000805534801561001457600080fd5b506100d560a060405190810160405280608081526020017f343834313130393661303564653466663733373764653734633835383531313481526020017f643961363466363734363161323130623037626333666630643266656639386281526020017f303132366361306433343136303330623537633339353463303933643931393681526020017f38373866326665306663353633613034616334323932643962343861616133398152506100da640100000000026401000000009004565b61028e565b60008081548092919060010191905055506040805190810160405280600054815260200182815250600160008054815260200190815260200160002060008201518160000155602082015181600101908051906020019061013c9291906101e9565b509050507fe2ace3ceb392b309a35f95a17f21f77f8defc978ccab98997cf8b4151a2c9cf9600054826040518083815260200180602001828103825283818151815260200191508051906020019080838360005b838110156101ab578082015181840152602081019050610190565b50505050905090810190601f1680156101d85780820380516001836020036101000a031916815260200191505b50935050505060405180910390a150565b828054600181600116156101000203166002900490600052602060002090601f016020900481019282601f1061022a57805160ff1916838001178555610258565b82800160010185558215610258579182015b8281111561025757825182559160200191906001019061023c565b5b5090506102659190610269565b5090565b61028b91905b8082111561028757600081600090555060010161026f565b5090565b90565b6104ac8061029d6000396000f3fe608060405260043610610057576000357c0100000000000000000000000000000000000000000000000000000000900463ffffffff168063806714c11461005c5780638be1019414610087578063e3467dab14610142575b600080fd5b34801561006857600080fd5b5061007161020a565b6040518082815260200191505060405180910390f35b34801561009357600080fd5b506100c0600480360360208110156100aa57600080fd5b8101908080359060200190929190505050610210565b6040518083815260200180602001828103825283818151815260200191508051906020019080838360005b838110156101065780820151818401526020810190506100eb565b50505050905090810190601f1680156101335780820380516001836020036101000a031916815260200191505b50935050505060405180910390f35b34801561014e57600080fd5b506102086004803603602081101561016557600080fd5b810190808035906020019064010000000081111561018257600080fd5b82018360208201111561019457600080fd5b803590602001918460018302840111640100000000831117156101b657600080fd5b91908080601f016020809104026020016040519081016040528093929190818152602001838380828437600081840152601f19601f8201169050808301925050505050505091929192905050506102cc565b005b60005481565b6001602052806000526040600020600091509050806000015490806001018054600181600116156101000203166002900480601f0160208091040260200160405190810160405280929190818152602001828054600181600116156101000203166002900480156102c25780601f10610297576101008083540402835291602001916102c2565b820191906000526020600020905b8154815290600101906020018083116102a557829003601f168201915b5050505050905082565b60008081548092919060010191905055506040805190810160405280600054815260200182815250600160008054815260200190815260200160002060008201518160000155602082015181600101908051906020019061032e9291906103db565b509050507fe2ace3ceb392b309a35f95a17f21f77f8defc978ccab98997cf8b4151a2c9cf9600054826040518083815260200180602001828103825283818151815260200191508051906020019080838360005b8381101561039d578082015181840152602081019050610382565b50505050905090810190601f1680156103ca5780820380516001836020036101000a031916815260200191505b50935050505060405180910390a150565b828054600181600116156101000203166002900490600052602060002090601f016020900481019282601f1061041c57805160ff191683800117855561044a565b8280016001018555821561044a579182015b8281111561044957825182559160200191906001019061042e565b5b509050610457919061045b565b5090565b61047d91905b80821115610479576000816000905550600101610461565b5090565b9056fea165627a7a72305820865204ab729e1ee3d2df86e8cb29643e4c2fdd31b0f8200de8f6c4becd7d7e710029",
  "source": "pragma solidity ^0.5.0;\r\n\r\ncontract MessageSignatures {\r\n    uint256 public sigCount = 0;\r\n\r\n    struct Signature {\r\n        uint256 id;\r\n        string content;\r\n    }\r\n\r\n    constructor() public {\r\n        createSignature(\r\n            \"48411096a05de4ff7377de74c8585114d9a64f67461a210b07bc3ff0d2fef98b0126ca0d3416030b57c3954c093d9196878f2fe0fc563a04ac4292d9b48aaa39\"\r\n        );\r\n    }\r\n\r\n    mapping(uint256 => Signature) public signatures;\r\n\r\n    event SignatureCreated(uint256 id, string content);\r\n\r\n    function createSignature(string memory _content) public {\r\n        sigCount++;\r\n        signatures[sigCount] = Signature(sigCount, _content);\r\n        emit SignatureCreated(sigCount, _content);\r\n    }\r\n}\r\n",
  "sourcePath": "C:/Users/Dave/ethereumworkspace/dw00506_fyp/signatures/contracts/MessageSignatures.sol",
  "compiler": {
    "name": "solc",
    "version": "0.5.0+commit.1d4f565a.Emscripten.clang"
  },
  "schemaVersion": "3.0.1",
  "updatedAt": "2021-04-12T14:49:42.084Z",
  "devdoc": {
    "methods": {}
  },
  "userdoc": {
    "methods": {}
  }
}