{
  "contractName": "MessageSignatures",
  "abi": [
    {
      "constant": true,
      "inputs": [
        {
          "name": "",
          "type": "uint256"
        }
      ],
      "name": "signatures",
      "outputs": [
        {
          "name": "id",
          "type": "uint256"
        },
        {
          "name": "content",
          "type": "string"
        }
      ],
      "payable": false,
      "stateMutability": "view",
      "type": "function",
      "signature": "0x8be10194"
    },
    {
      "inputs": [],
      "payable": false,
      "stateMutability": "nonpayable",
      "type": "constructor",
      "signature": "constructor"
    },
    {
      "anonymous": false,
      "inputs": [
        {
          "indexed": false,
          "name": "id",
          "type": "uint256"
        },
        {
          "indexed": false,
          "name": "content",
          "type": "string"
        }
      ],
      "name": "SignatureCreated",
      "type": "event",
      "signature": "0xe2ace3ceb392b309a35f95a17f21f77f8defc978ccab98997cf8b4151a2c9cf9"
    },
    {
      "constant": false,
      "inputs": [
        {
          "name": "_content",
          "type": "string"
        },
        {
          "name": "_id",
          "type": "uint256"
        }
      ],
      "name": "createSignature",
      "outputs": [],
      "payable": false,
      "stateMutability": "nonpayable",
      "type": "function",
      "signature": "0x244bb8d1"
    }
  ],
  "bytecode": "0x608060405234801561001057600080fd5b506100d360a060405190810160405280608081526020017f343834313130393661303564653466663733373764653734633835383531313481526020017f643961363466363734363161323130623037626333666630643266656639386281526020017f303132366361306433343136303330623537633339353463303933643931393681526020017f383738663266653066633536336130346163343239326439623438616161333981525060006100d8640100000000026401000000009004565b610276565b6040805190810160405280828152602001838152506000808381526020019081526020016000206000820151816000015560208201518160010190805190602001906101259291906101d1565b509050507fe2ace3ceb392b309a35f95a17f21f77f8defc978ccab98997cf8b4151a2c9cf981836040518083815260200180602001828103825283818151815260200191508051906020019080838360005b83811015610192578082015181840152602081019050610177565b50505050905090810190601f1680156101bf5780820380516001836020036101000a031916815260200191505b50935050505060405180910390a15050565b828054600181600116156101000203166002900490600052602060002090601f016020900481019282601f1061021257805160ff1916838001178555610240565b82800160010185558215610240579182015b8281111561023f578251825591602001919060010190610224565b5b50905061024d9190610251565b5090565b61027391905b8082111561026f576000816000905550600101610257565b5090565b90565b610464806102856000396000f3fe60806040526004361061004c576000357c0100000000000000000000000000000000000000000000000000000000900463ffffffff168063244bb8d1146100515780638be1019414610123575b600080fd5b34801561005d57600080fd5b506101216004803603604081101561007457600080fd5b810190808035906020019064010000000081111561009157600080fd5b8201836020820111156100a357600080fd5b803590602001918460018302840111640100000000831117156100c557600080fd5b91908080601f016020809104026020016040519081016040528093929190818152602001838380828437600081840152601f19601f820116905080830192505050505050509192919290803590602001909291905050506101de565b005b34801561012f57600080fd5b5061015c6004803603602081101561014657600080fd5b81019080803590602001909291905050506102d7565b6040518083815260200180602001828103825283818151815260200191508051906020019080838360005b838110156101a2578082015181840152602081019050610187565b50505050905090810190601f1680156101cf5780820380516001836020036101000a031916815260200191505b50935050505060405180910390f35b60408051908101604052808281526020018381525060008083815260200190815260200160002060008201518160000155602082015181600101908051906020019061022b929190610393565b509050507fe2ace3ceb392b309a35f95a17f21f77f8defc978ccab98997cf8b4151a2c9cf981836040518083815260200180602001828103825283818151815260200191508051906020019080838360005b8381101561029857808201518184015260208101905061027d565b50505050905090810190601f1680156102c55780820380516001836020036101000a031916815260200191505b50935050505060405180910390a15050565b6000602052806000526040600020600091509050806000015490806001018054600181600116156101000203166002900480601f0160208091040260200160405190810160405280929190818152602001828054600181600116156101000203166002900480156103895780601f1061035e57610100808354040283529160200191610389565b820191906000526020600020905b81548152906001019060200180831161036c57829003601f168201915b5050505050905082565b828054600181600116156101000203166002900490600052602060002090601f016020900481019282601f106103d457805160ff1916838001178555610402565b82800160010185558215610402579182015b828111156104015782518255916020019190600101906103e6565b5b50905061040f9190610413565b5090565b61043591905b80821115610431576000816000905550600101610419565b5090565b9056fea165627a7a7230582043faed3a7c5542d35024e56798cf1c0d992333a1b43567a16435d69b0b1cd1230029",
  "source": "pragma solidity ^0.5.0;\r\n\r\ncontract MessageSignatures {\r\n    struct Signature {\r\n        uint256 id;\r\n        string content;\r\n    }\r\n\r\n    constructor() public {\r\n        createSignature(\r\n            \"48411096a05de4ff7377de74c8585114d9a64f67461a210b07bc3ff0d2fef98b0126ca0d3416030b57c3954c093d9196878f2fe0fc563a04ac4292d9b48aaa39\",\r\n            0\r\n        );\r\n    }\r\n\r\n    mapping(uint256 => Signature) public signatures;\r\n\r\n    event SignatureCreated(uint256 id, string content);\r\n\r\n    function createSignature(string memory _content, uint256 _id) public {\r\n        signatures[_id] = Signature(_id, _content);\r\n        emit SignatureCreated(_id, _content);\r\n    }\r\n}\r\n",
  "sourcePath": "C:/Users/Dave/ethereumworkspace/dw00506_fyp/signatures/contracts/MessageSignatures.sol",
  "compiler": {
    "name": "solc",
    "version": "0.5.0+commit.1d4f565a.Emscripten.clang"
  },
  "schemaVersion": "3.0.1",
  "updatedAt": "2021-05-06T12:35:26.219Z",
  "devdoc": {
    "methods": {}
  },
  "userdoc": {
    "methods": {}
  }
}